:020000040800F2
:10000000380400204501000845050008E903000800
:10001000410500082F02000833140008000000000A
:100020000000000000000000000000009D0D00081E
:100030004D02000800000000E10A0008A10E0008BF
:100040005F0100085F0100085F0100085F01000810
:100050005F0100085F0100085F0100085F01000800
:100060005F0100085F0100085F0100085F010008F0
:100070005F0100085F0100085F0100085F010008E0
:100080005F0100085F0100085F0100085F010008D0
:100090005F0100085F0100085F0100085F010008C0
:1000A0005F0100085F0100085F0100085F010008B0
:1000B0005F0100085F0100085F0100085F010008A0
:1000C0005F0100085F0100085F0100085F01000890
:1000D0005F0100085F010008C9100008C511000891
:1000E0005F0100085F0100085F0100085F01000870
:1000F0005F0100085F0100085F0100085F01000860
:100100005F0100085F0100085F0100085F0100084F
:100110009D0F00085F0100085F0100085F010008F3
:100120005F0100085F0100085F0100085F0100082F
:10013000DFF80CD000F04AF8004800479D1A00088C
:10014000380400200648804706480047FEE7FEE7DF
:10015000FEE7FEE7FEE7FEE7FEE7FEE7FEE7FEE777
:10016000250F0008310100082DE9F05F0546002049
:1001700092469B4688460646814640241BE0284618
:1001800041464746224600F042F853465A46C01AB6
:10019000914110D311461846224600F029F82D1A35
:1001A00067EB01084F4622460120002100F020F8AD
:1001B00017EB00094E41201EA4F10104DFDC484684
:1001C00031462A464346BDE8F09F0000064C074DE5
:1001D00006E0E06840F0010394E807009847103417
:1001E000AC42F6D3FFF7A8FF782300089823000855
:1001F000202A04DB203A00FA02F1002070479140E7
:10020000C2F1200320FA03F3194390407047202ADB
:1002100004DB203A21FA02F00021704721FA02F3B0
:10022000D040C2F12002914008431946704700BFF8
:10023000FEE770B505460C46284600F045FD06462B
:1002400026EA0401284601F005F970BD704710B593
:100250000246002404E04FF47A7000F011F8521EB8
:100260009442F8D310BD30B50446002504E04FF4A5
:100270007A70FFF7ECFF641EA542F8D330BD000092
:1002800001B50C49009808604FF0E020006940F08B
:1002900001004FF0E021086100BF06480068002817
:1002A000FBD14FF0E020006920F001004FF0E02189
:1002B000086108BD2C0000202DE9F0410246002510
:1002C0000026002000230024002791F803C00CF032
:1002D0000F0591F803C00CF0100CBCF1000F03D017
:1002E00091F802C04CEA050591F800C0BCF1000F7E
:1002F00031D0146800202BE04FF0010C0CFA00F311
:10030000B1F800C00CEA03069E4220D183004FF0F2
:100310000F0C0CFA03F7BC4305FA03FC4CEA040487
:1003200091F803C0BCF1280F06D14FF0010C0CFA74
:1003300000FCC2F814C00AE091F803C0BCF1480FF9
:1003400005D14FF0010C0CFA00FCC2F810C0401CA3
:100350000828D1D31460B1F800C0BCF1FF0F34DD20
:10036000546800202EE000F1080C4FF0010808FA54
:100370000CF3B1F800C00CEA03069E4221D18300C1
:100380004FF00F0C0CFA03F7BC4305FA03FC4CEAE0
:10039000040491F803C0BCF1280F05D100F1080C4A
:1003A00008FA0CF8C2F8148091F803C0BCF1480FA9
:1003B00007D100F1080C4FF0010808FA0CF8C2F858
:1003C0001080401C0828CED35460BDE8F08102465E
:1003D000002093680B400BB1012000E00020704723
:1003E000416170470161704700BFFEE770B5054687
:1003F0000C4601F00DFB782001F0E0FA01F030FB33
:1004000000B110E0284601F0D9FA01F029FB00B153
:1004100009E0204601F0D2FA01F022FB00B102E02F
:1004200001F00EFB00BF01F00BFB70BD8CB049E08A
:1004300003A9522000F0E9FA0446262804D003A9B3
:10044000522000F0E2FA0446262C3BD103A800F02B
:100450000AFA262836D19DF80F009DF80E10CDE936
:1004600000109DF80D309DF80C2017A104A801F094
:1004700019F8022304AA0621002000F071F99DF862
:100480000C10164800F032FE9DF80D10134800F0D5
:100490002DFE9DF80E10114800F028FE9DF80F105B
:1004A0000E4800F023FE04A90DA000F0EBFF0E485B
:1004B0000078401C0C490870084600780A2801D1D1
:1004C00000200870B4E7000025303258253032583B
:1004D00025303258253032580000000000440040DA
:1004E00025730D0A000000002800002010B5044606
:1004F000412C24D108210846FFF79BFE3D21112005
:1005000000F0A8FF8621172000F0A4FF7F212620FD
:1005100000F0A0FF1E212D2000F09CFF00212C20C8
:1005200000F098FF8D212A2000F094FF3E212B201F
:1005300000F090FF0220FFF7A3FE00F087F910BD46
:1005400000BFFEE7704708B54FF4A06000F06EF8FA
:1005500026208DF8000001208DF801008DF80200A2
:100560008DF80300684600F029F808BD08B54FF47F
:10057000A06000F05BF827208DF8000001208DF8C6
:10058000010002208DF8020001208DF8030068466A
:1005900000F014F808BD08B54FF4A06000F046F86C
:1005A00034208DF8000001208DF801008DF8020044
:1005B0008DF80300684600F001F808BD70B5002111
:1005C00000230F22C47804B3154C246804F4E064BB
:1005D000C4F5E064210AC1F10403CA40447804FA76
:1005E00003F184781440214309010E4C0678A1558B
:1005F000047804F01F050124AC4005786D11AD00AE
:1006000005F1E025C5F8004109E0047804F01F0574
:100610000124AC40044D0678761145F8264070BDA3
:100620000CED00E000E400E080E100E0024901435D
:10063000024A1160704700000000FA050CED00E06E
:1006400010B5002000F001F810BD70B5064600247A
:1006500015E004F1B001C8B200F0EDFE002000F09A
:10066000EAFE102000F0E7FE002504E0304600F02E
:10067000E9FE681CC5B2802DF8DB601CC4B2082CF2
:10068000E7DB70BD10B50120FFF7EDFDAE2000F0F7
:10069000D2FE202000F0CFFE102000F0CCFEB020D3
:1006A00000F0C9FEC82000F0C6FE002000F0C3FE26
:1006B000102000F0C0FE402000F0BDFE812000F0C0
:1006C000BAFEFF2000F0B7FEA12000F0B4FEA62085
:1006D00000F0B1FEA82000F0AEFE3F2000F0ABFE1F
:1006E000A42000F0A8FED32000F0A5FE002000F01A
:1006F000A2FED52000F09FFEF02000F09CFED92045
:1007000000F099FE222000F096FEDA2000F093FE21
:10071000122000F090FEDB2000F08DFE202000F083
:100720008AFE8D2000F087FE142000F084FEAF20AA
:1007300000F081FE10BD70B504460D4605F1B00114
:10074000C8B200F078FE102141EA141000F073FEE8
:1007500004F00F0141F0010000F06DFE70BD0000DB
:100760002DE9F0470646894617469A464FF000089D
:1007700000240025BAF1010F03D0BAF1020F5ED1B7
:1007800025E020E0785D203800F0FF087E2E04DDB3
:10079000002609F1010000F0FF0949463046FFF745
:1007A000CAFF002409E008EB4801264A02EB410198
:1007B000085D00F047FE601CC4B2062CF3DBB01DE0
:1007C000C6B2681CC5B2785D0028DBD137E032E0E4
:1007D000785D203800F0FF08782E04DD002609F14E
:1007E000010000F0FF0949463046FFF7A4FF00244E
:1007F00007E004EB0811144A505C00F023FE601C73
:10080000C4B2082CF5DB09F10100C1B23046FFF794
:1008100092FF002408E004EB081108310A4A505CFA
:1008200000F010FE601CC4B2082CF4DB06F10800D6
:10083000C6B2681CC5B2785D0028C9D100BF00BF30
:10084000BDE8F087601B0008881D000810B5142063
:1008500000F03AFA044604F0030018B9032114200A
:1008600000F09DFA10BDF0B587B0054600270821BD
:100870000846FFF7DEFC00210D2000F0EBFD802193
:100880000E20FFF7D6FC93208DF8080020208DF86D
:10089000090001A802AB022202A900900C2000F07E
:1008A0001BF80646262E10D1002407E002A8005DA2
:1008B000285502A8005D4740601CC4B2042CF5DB3B
:1008C00002A8005DB84200D0BB2680210E2000F0B7
:1008D00066FA304607B0F0BD2DE9FE4F0646884661
:1008E00091469A46DDF830B0BB200290002001907E
:1008F00000900C2E06D00E2E09D11220019010204F
:10090000009005E0772001903020009000E000BFCB
:1009100000BF019840F08001022000F09BFD802183
:100920000420FFF786FC0021012000F093FD8021C8
:100930000A2000F034FA002505E018F80510092017
:1009400000F088FD6D1C4D45F7D33146012000F0C5
:1009500081FD0C2E03D180210D2000F020FA4FF4F0
:100960007A7500BF042000F0AFF904466D1E35B162
:1009700004F0010018B9009820400028F2D080212E
:100980000D20FFF756FC95B3062000F09DF900F00E
:100990001B0068BB262002900198204000F0010057
:1009A00008B1CC2002900C2E24D10A2000F08CF942
:1009B00004460C2000F088F900F007072FB1601EF4
:1009C00007EBC000CBF8000002E0E000CBF800002D
:1009D00004B90124122C00DD1224002505E00920B1
:1009E00000F072F90AF805006D1CA542F7D301E08A
:1009F000BB20029080210C2000F0D1F900210120C1
:100A000000F028FD0298BDE8FE8F70B588B005465D
:100A10000C4608210846FFF70CFC07210D2000F0CA
:100A200019FD0321142000F0BAF98DF80C5002A82A
:100A300003AB012203A900900C20FFF74DFF0646EF
:100A4000262E09D10298102806D19DF80C0020709E
:100A50009DF80D00607000E0BB26304608B070BD08
:100A600010B510211D48FFF7BDFC0120FFF708FC61
:100A700010211A48FFF7B4FC0120FFF701FC1021F8
:100A80001648FFF7AFFC0120FFF7FAFB0F2101200A
:100A900000F0E0FC00BF012000F016F900F01000AB
:100AA0000028F8D10120FFF7EBFB3D21112000F0D9
:100AB000D1FC1E212D2000F0CDFC00212C2000F0C7
:100AC000C9FC8D212A2000F0C5FC3E212B2000F01E
:100AD000C1FC4021152000F0BDFC10BD00100140FC
:100AE0007047000010B500F00DF810210348FFF723
:100AF00079FC10210248FFF775FC10BD0010014081
:100B00000008014008B50121042000F063F810201E
:100B1000ADF8000003208DF8020010208DF80300CE
:100B200069462248FFF7C8FB0121042000F052F873
:100B30002020ADF8000003208DF8020010208DF871
:100B4000030069461948FFF7B7FB0121042000F0B4
:100B500041F88020ADF8000003208DF8020010203D
:100B60008DF8030069461148FFF7A6FB0121042018
:100B700000F030F84020ADF8000004208DF80300AC
:100B800069460A48FFF798FB0121102000F022F87F
:100B90001020ADF8000003208DF8020010208DF821
:100BA000030069460248FFF787FB08BD00080140C3
:100BB0000010014029B1064AD2690243044BDA61B0
:100BC00004E0034AD2698243014BDA6170470000B6
:100BD0000010024029B1064A92690243044B9A610F
:100BE00004E0034A92698243014B9A617047000016
:100BF0000010024030B500210022002400232D4DBA
:100C00006D6805F00C0121B1042905D0082923D114
:100C100005E0294D056022E0274D05601FE0254DC8
:100C20006D6805F47012234D6D6805F4803402255B
:100C300005EB92421CB9214D554305600BE01D4D5B
:100C40006D6805F400351DB11C4D5543056002E08B
:100C5000194D5543056002E0174D056000BF00BF08
:100C6000144D6D6805F0F0010909154D6B5C0568C0
:100C7000DD4045600F4D6D6805F4E061090A104DD7
:100C80006B5C4568DD4085600A4D6D6805F4605118
:100C9000C90A0B4D6B5C4568DD40C560054D6D684C
:100CA00005F44041890B074D6B5CC568B5FBF3F556
:100CB000056130BD0010024000127A0000093D00BD
:100CC000140000202400002070B504467E2000EAB5
:100CD000440040F0800510210748FFF781FB2846BB
:100CE00000F032F800F00AF8064610210248FFF73B
:100CF00079FB304670BD00000008014070B500254A
:100D00001CE06006040E20210E48FFF769FBC82096
:100D1000FFF7B6FA40210B48FFF759FB012801D134
:100D200044F00104C820FFF7ABFA20210548FFF783
:100D300059FBC820FFF7A4FA681CC5B2082DE0DBF8
:100D4000204670BD0008014070B50446002520E033
:100D500004F0800020B180210F48FFF743FB03E03F
:100D600080210D48FFF73CFBC820FFF789FA2021BE
:100D70000948FFF735FBC820FFF782FA2021064813
:100D8000FFF730FBC820FFF77BFA6006040E681CF3
:100D9000C5B2082DDCDB70BD00080140704770B59E
:100DA00005460C462846FFF78FFF064646EA040133
:100DB000284600F04FFB70BD10B500F001F810BDE3
:100DC0000CB50020019000903348006840F480305A
:100DD0003149086000BF3048006800F400300090DE
:100DE0000198401C0190009818B90198B0F5A06FC7
:100DF000F1D12948006800F4003010B101200090C2
:100E000001E0002000900098012843D123480068A9
:100E100040F01000214908600846006820F00300F7
:100E200008600846006840F0020008601A48406800
:100E3000194948600846406848600846406840F4E0
:100E4000806048600846406820F47C10486008468E
:100E5000406840F4E81048600846006840F0807040
:100E6000086000BF0C48006800F000700028F9D04E
:100E70000948406820F00300074948600846406878
:100E800040F00200486000BF0348406800F00C00DA
:100E90000828F9D10CBD00000010024000200240DB
:100EA00010B500F06FF810BD30B51A4800681A4A46
:100EB000B0FBF2F1B1F1807F01D301201DE021F000
:100EC0007F40401E4FF0E022506150170F22002853
:100ED00007DA13071D0E114B00F00F04241F1D55D8
:100EE00003E013071C0E0E4B1C5400BF00204FF0F4
:100EF000E022906107201061002008B100BFFEE7EA
:100F00004FF0E020006920F001004FF0E02108617F
:100F100030BD00000000002040420F0018ED00E04E
:100F200000E400E010B51348006840F001001149EA
:100F3000086008464068104908400E494860084665
:100F400000680E4908400B4908600846006820F414
:100F5000802008600846406820F4FE0048604FF496
:100F60001F008860FFF728FF4FF000600449086009
:100F700010BD0000001002400000FFF8FFFFF6FE69
:100F800008ED00E00448006820B103480068401EF6
:100F900001490860704700002C00002010B540F2A5
:100FA0002551064800F081F938B1044800F038FABC
:100FB000C4B22146014800F038FA10BD004C004090
:100FC00000B585B0012144F20400FFF703FE4FF4A1
:100FD0000070ADF8100018208DF8130003208DF874
:100FE000120004A91348FFF767F94FF48060ADF8C9
:100FF000100004208DF8130004A90E48FFF75CF9D7
:101000004FF4E13000900020ADF80400ADF8060088
:10101000ADF80800ADF80C000C20ADF80A006946E8
:10102000054800F091F90121034800F025F905B0C9
:1010300000BD0000000801400038014000B585B047
:1010400001210420FFF7C6FD01214804FFF7B2FD8E
:101050000420ADF8100018208DF8130003208DF83F
:10106000120004A91648FFF727F90820ADF8100070
:1010700004208DF8130004A91148FFF71DF94FF45F
:10108000165000900020ADF80400ADF80600ADF851
:101090000800ADF80C000C20ADF80A0069460948BC
:1010A00000F052F9FFF74FFA012240F225510548AE
:1010B00000F025F90121034800F0DEF805B000BD7D
:1010C000000801400044004010B540F22551064898
:1010D00000F0EBF838B1044800F0A2F9C4B22146A0
:1010E000014800F0A2F910BD0044004070B504466C
:1010F0000D462946204600F098F900BF8021204681
:1011000000F0C6F80028F9D070BD70B506460C4650
:10111000002500BF615D3046FFF7E8FF6D1C605D94
:101120000028F7D100BF4021304600F0B1F8002878
:10113000F9D070BD00B585B001210820FFF74AFD48
:1011400001218804FFF736FD4FF48060ADF81000F0
:1011500018208DF8130003208DF8120004A91748F9
:10116000FFF7AAF84FF40060ADF8100004208DF8E6
:10117000130004A91148FFF79FF84FF4E1300090E5
:101180000020ADF80400ADF80600ADF80800ADF899
:101190000C000C20ADF80A006946094800F0D4F8AC
:1011A000FFF7E4F9012240F22551054800F0A7F8C5
:1011B0000121034800F060F805B000BD000C0140BB
:1011C0000048004010B540F22551064800F06DF887
:1011D00038B1044800F024F9C4B22146014800F0B7
:1011E00024F910BD0048004000B585B00121102051
:1011F000FFF7F0FC0121C804FFF7DCFC4FF480602E
:10120000ADF8100018208DF8130003208DF812009F
:1012100004A91748FFF750F84FF40060ADF810002C
:1012200004208DF8130004A91148FFF745F84FF486
:10123000165000900020ADF80400ADF80600ADF89F
:101240000800ADF80C000C20ADF80A00694609480A
:1012500000F07AF8FFF79FF9012240F22551054886
:1012600000F04DF80121034800F006F805B000BD7C
:1012700000100140004C004021B1828942F400522C
:10128000828104E082894DF6FF731A4082817047A3
:1012900002460020B1F5007F00D100BF13880B404B
:1012A0000BB1012000E00020704770B50246002419
:1012B00000230025002040F66A16B14200D100BF8D
:1012C000C1F3421501F01F03012606FA03F3012DB5
:1012D00002D19689334006E0022D02D1168A3340AE
:1012E00001E0968A33400C12012606FA04F41688AF
:1012F000344013B10CB1012000E0002070BDF0B506
:101300000346002400260025002040F66A17B94253
:1013100000D100BF1846C1F3421401F01F06012797
:1013200007FA06F5012C01D10C3004E0022C01D1A2
:10133000103000E014301AB107682F43076002E054
:101340000768AF430760F0BD2DE9F04786B005465A
:101350000E460024A24600BFA1460027B08900B176
:1013600000BF2F462C8A4CF6FF700440F0880443DF
:101370002C82AC894EF6F3100440B08831890843C2
:10138000718908430443AC81AC8A4FF6FF400440A6
:10139000B0890443AC8201A8FFF72CFC1F488742A8
:1013A00002D1DDF810A001E0DDF80CA0A88900F45E
:1013B000004040B10AEBCA0000EB0A103168490056
:1013C000B0FBF1F807E00AEBCA0000EB0A10316845
:1013D0008900B0FBF1F86420B8FBF0F004012009AB
:1013E000642101FB1089A88900F4004040B132203B
:1013F00000EBC900B0FBF1F000F00700044308E087
:10140000322000EB09106421B0FBF1F000F00F0076
:1014100004432C8106B0BDE8F0870000003801408D
:1014200001468888C0F308007047C1F30802828033
:10143000704700BFFEE710B5044621460020FEF7C6
:10144000D5FF10BD10B5044621464020FEF7CEFF63
:1014500010BD000070B504460D467E2000EA44062B
:1014600010210748FEF7BCFF3046FFF76DFC284609
:10147000FFF76AFC10210248FEF7B4FF70BD0000C0
:10148000000801400FB4054B10B503A9044A0298A7
:1014900000F02CF810BC5DF814FB0000591900088E
:1014A000300000200FB4084B10B504A902AA03981D
:1014B00000F01CF8044602A9002000F048FA20467B
:1014C00010BC5DF814FB00004F19000802E008C8CA
:1014D000121F08C1002AFAD170477047002001E0AE
:1014E00001C1121F002AFBD1704700002DE9FF4FF8
:1014F0008DB00F460546002606E025280BD0DDE915
:101500000F1290476D1C761C28780028F5D111B079
:101510003046BDE8F08F0024A246A1460122EC49E6
:1015200000E0044315F8013F203B02FA03F00842B3
:10153000F7D128782A2810D06FF02F022878A0F150
:101540003001092914D80AEB8A0102EB410144F069
:10155000020400EB010A6D1CF0E701CF5FEA000A0C
:1015600003D544F40054CAF1000A44F002046D1C8F
:1015700028782E2817D115F8010F44F004042A28E2
:101580000ED06FF02F022878A0F1300109290AD877
:1015900009EB890102EB410100EB01096D1CF2E747
:1015A00057F8049B6D1C28786C280FD006DC4C285B
:1015B00017D068280DD06A2814D104E0742810D000
:1015C0007A280FD10DE044F400140AE044F48014AA
:1015D00001E044F440146978814202D104F580149A
:1015E0006D1C6D1C2A786E2A1FD00CDC632A31D04A
:1015F00004DC002A8BD0582A11D1A3E0642A68D0D9
:10160000692A0CD165E0732A2ED004DC6F2A73D0CE
:10161000702A04D19BE0752A6FD0782A6ED01046CC
:10162000DDE90F129047761C50E1C4F30250022806
:1016300006D0032809D0042801CF09D0066045E16F
:1016400001CFF117C0E9006140E101CF06803DE123
:1016500006703BE117F8040B8DF8000000208DF8B0
:101660000100EB46012003E057F804BB4FF0FF30C8
:1016700061074FF0000102D40DE008F10101884636
:1016800049450FDA8045F8DB1BF808100029F4D132
:1016900008E008F1010188468142FADB1BF80810D6
:1016A0000029F6D1DDE90F23AAEB08008146214687
:1016B00000F036F9304400EB080604E0DDE90F12D3
:1016C0001BF8010B9047B8F10108F7D221464846B4
:1016D000F7E00A21C4F302534FF0000B0891022BEC
:1016E00004D001CFC117032B09D00AE0FF1D27F05A
:1016F0000707F7E8020108E032E01FE020E000B24F
:10170000C117042B01D140B2C117031E71F10003B0
:1017100007DA4FF0000CD0EB0C006CEB01012D232D
:1017200002E0230504D52B238DF82430012303E0A8
:10173000E30701D02023F7E7984658E00A2110E09C
:1017400010210EE010204FF0000B08900CE010214B
:101750004FF0000B44F004044FF00809089103E037
:1017600008214FF0000B0891C4F30253022B04D060
:1017700001CF0021032B06D006E0FF1D27F007074D
:10178000F7E8020103E080B2042B00D1C0B24FF0B1
:10179000000823072BD5702A07D0DDF820C08CF075
:1017A000100C5CEA0B0C05D00EE040238DF82430C1
:1017B000012308E050EA010306D030238DF82430DD
:1017C0008DF8252002239846DDF820C08CF0080C07
:1017D0005CEA0B0C0BD150EA010301D1630706D57B
:1017E00030238DF824304FF00108A9F10109582A5F
:1017F00004D038A20B9208AA0A920BE03AA2F9E7A9
:101800005B46089AFEF7B0FC0B9B9B5C0A9A521E43
:101810000A92137050EA0102F2D10A98ADEB00006F
:1018200000F1200B600702D524F4803401E04FF072
:101830000109D94502DDA9EB0B0000E0002000EB17
:101840000B0141440890AAEB010AE00306D4DDE94C
:101850000F232146504600F063F806444FF000097C
:1018600008E009A911F80900DDE90F12904709F114
:101870000109761CC145F4DBE0030CD5DDE90F233B
:101880002146504600F04CF8064404E0DDE90F1212
:1018900030209047761C0899481E08900029F5DCF6
:1018A00008E00A980A990078491C0A91DDE90F12AC
:1018B0009047761CBBF10001ABF1010BF1DC214636
:1018C0005046DDE90F2300F019F806446D1C1BE6B5
:1018D0000928010030313233343536373839616206
:1018E00063646566000000003031323334353637CA
:1018F0003839414243444546000000002DE9F0419B
:10190000044600251E461746880404D405E03946DF
:101910002020B0476D1C641EF9D52846BDE8F08133
:101920002DE9F041044600251E469046C80301D526
:10193000302700E02027880404D505E041463846DA
:10194000B0476D1C641EF9D52846BDE8F0810A68D1
:10195000531C0B601070704770B504460D46E1B221
:101960000548FFF762FD00BF80210348FFF790FCA8
:101970000028F9D0204670BD0038014008B501218B
:101980000820FFF727F9C020ADF8000003208DF8EC
:10199000020014208DF8030069460348FEF78CFC12
:1019A00000F04EF808BD0000000C0140002001E0EE
:1019B000411CC8B20A28FBDB7047000070B5044622
:1019C000002520E004F0800018B180200F49086055
:1019D00003E080200D49091D0860FFF7E7FF402064
:1019E0000A490860FFF7E2FF40200849091D086026
:1019F000072D02D18020091F08606006040EFFF742
:101A0000D5FF681CC5B2082DDCDB70BD100C014091
:101A100010B580200949086040200860FFF7C6FF24
:101A200080200649091D0860FFF7C0FF40200349D8
:101A3000091D0860FFF7BAFF10BD0000100C01403F
:101A400010B58020054908604020091F0860FFF795
:101A5000ADFF80200149091F086010BD140C014032
:101A600010B580200C490860FFF7A0FF40200A490C
:101A70000860FFF79BFF08480838006800F0800006
:101A800008B1012400E0002440200349091D08603A
:101A9000FFF78CFF204610BD100C0140FFF704FA41
:101AA000FFF78EFAFFF7CAFAFFF744FBFFF79CFB3C
:101AB000FFF764FFFEF7E6FDFFF714F813A0FFF74A
:101AC000E1FC16A11948FFF720FBFEF7C9FF4120F2
:101AD000FEF70CFDFEF7B4FD022315A20021084617
:101AE000FEF73EFE022316A219460020FEF738FE3E
:101AF000022317A204210020FEF732FE0120FEF788
:101B0000B2FB01E0FEF792FCFCE7000057462D52C5
:101B10004335323220546573740D0A00C0B6D1C00B
:101B2000C1ACBDD3D5FDB3A30A0000000044004002
:101B30005265737062657474795069203442000094
:101B40003139322E3136382E3133372E32320000D1
:101B500053544D3332463130335243543600000033
:101B60000000000000000000002F0000000007003F
:101B7000070000147F147F1400242A7F2A120062B9
:101B80006408132300364955225000000503000065
:101B900000001C224100000041221C000014083EED
:101BA00008140008083E0808000000A060000008B3
:101BB0000808080800006060000000201008040207
:101BC000003E5149453E0000427F400000426151C5
:101BD0004946002141454B31001814127F1000275F
:101BE00045454539003C4A49493000017109050322
:101BF00000364949493600064949291E0000363653
:101C000000000000563600000008142241000014B5
:101C10001414141400004122140800020151090692
:101C200000324959513E007C1211127C007F494913
:101C30004936003E41414122007F4141221C007F44
:101C400049494941007F09090901003E4149497A52
:101C5000007F0808087F0000417F410000204041CC
:101C60003F01007F08142241007F40404040007F38
:101C7000020C027F007F0408107F003E4141413E7C
:101C8000007F09090906003E4151215E007F0919C4
:101C900029460046494949310001017F0101003FC1
:101CA0004040403F001F2040201F003F4038403F41
:101CB00000631408146300070870080700615149A5
:101CC000454300007F41410000552A552A55000038
:101CD00041417F00000402010204004040404040B6
:101CE000000001020400002054545478007F48444E
:101CF000443800384444442000384444487F003885
:101D00005454541800087E0901020018A4A4A47CAD
:101D1000007F080404780000447D40000040808477
:101D20007D00007F102844000000417F4000007CBF
:101D300004180478007C08040478003844444438CB
:101D400000FC242424180018242418FC007C080417
:101D5000040800485454542000043F444020003CF0
:101D60004040207C001C2040201C003C4030403C77
:101D7000004428102844001CA0A0A07C0044645407
:101D80004C4414141414141400000000000000004B
:101D90000000000000000000000000F8000000004B
:101DA000000000333000000000100C06100C06008C
:101DB000000000000000000040C07840C0784000F3
:101DC000043F04043F040400007088FC0830000055
:101DD000001820FF211E0000F008F000E0180000AD
:101DE00000211C031E211E0000F008887000000066
:101DF0001E2123241927211010160E0000000000B8
:101E00000000000000000000000000E018040200D4
:101E1000000000071820400000020418E000000045
:101E20000040201807000000404080F08040400043
:101E30000202010F01020200000000F00000000099
:101E40000101011F0101010000000000000000006D
:101E500080B07000000000000000000000000000E2
:101E6000000101010101010100000000000000006B
:101E70000030300000000000000000008060180406
:101E8000006018060100000000E010080810E000E3
:101E9000000F102020100F00001010F800000000AC
:101EA0000020203F202000000070080808887000F3
:101EB0000030282422213000003008888848300073
:101EC0000018202020110E000000C02010F8000093
:101ED00000070424243F240000F80888880808002C
:101EE0000019212020110E0000E010888818000041
:101EF000000F112020110E0000380808C838080013
:101F00000000003F00000000007088080888700092
:101F1000001C222121221C0000E010080810E00013
:101F20000000312222110F00000000C0C00000009C
:101F300000000030300000000000008000000000C1
:101F400000008060000000000000804020100800B9
:101F50000001020408102000404040404040400082
:101F6000040404040404040000081020408000005D
:101F70000020100804020100007048080808F00062
:101F80000000003036010000C030C828E810E00032
:101F90000718272423140B000000C038E0000000BD
:101FA000203C23020227382008F888888870000027
:101FB000203F202020110E00C030080808083800FB
:101FC000071820202010080008F808080810E00072
:101FD000203F202020100F0008F88888E808100013
:101FE000203F20202320180008F88888E8081000E7
:101FF000203F200003000000C0300808083800001F
:1020000007182020221E020008F808000008F8081F
:10201000203F210101213F20000808F808080000A6
:102020000020203F2020000000000808F8080800D9
:10203000C08080807F00000008F888C02818080051
:10204000203F20012638200008F80800000000008A
:10205000203F20202020300008F8F800F8F8080081
:10206000203F003F003F200008F830C00008F8087B
:10207000203F200007183F00E01008080810E0008B
:102080000F10202020100F0008F808080808F000A2
:10209000203F210101010000E01008080810E000C5
:1020A0000F18242438504F0008F88888888870005A
:1020B000203F2000030C30200070880808083800FA
:1020C0000038202121221C00180808F808081800F0
:1020D0000000203F2000000008F808000008F80871
:1020E000001F202020201F000878880000C8380822
:1020F000000007380E010000F80800F80008F8009A
:10210000033C0700073C0300081868808068180833
:1021100020302C03032C30200838C800C8380800B1
:102120000000203F2000000010080808C838080000
:102130002038262120201800000000FE02020200A4
:102140000000007F40404000000C30C00000000054
:10215000000000010638C00000020202FE0000007C
:10216000004040407F000000000004020202040022
:10217000000000000000000000000000000000005F
:102180008080808080808080000202040000000047
:10219000000000000000000000008080808000003F
:1021A0000019242222223F2008F80080800000002D
:1021B000003F112020110E000000008080800000F0
:1021C000000E112020201100000000808088F800FF
:1021D000000E112020103F20000080808080000031
:1021E000001F222222221300008080F08888881895
:1021F0000020203F202000000000808080808000A0
:10220000006B94949493600008F800808080000034
:10221000203F210000203F2000809898000000000F
:102220000020203F2020000000000080989800003F
:1022300000C08080807F000008F80000808080005F
:10224000203F24022D302000000808F80000000084
:102250000020203F2020000080808080808080003F
:10226000203F20003F20003F8080008080800000D1
:10227000203F210000203F2000008080808000005F
:10228000001F202020201F00808000808000000090
:1022900080FFA12020110E000000008080808000BF
:1022A000000E112020A0FF808080800080808000B0
:1022B00020203F21200001000000808080808000DD
:1022C0000033242424241900008080E08080000052
:1022D0000000001F2020000080800000008080009F
:1022E000001F202020103F20808080000080808000
:1022F00000010E3008060100808000800080808090
:102300000F300C030C300F000080800080808000B4
:102310000020312E0E3120008080800000808080DF
:1023200080818E701806010000808080808080008F
:102330000021302C2221300000000000807C0202AD
:1023400000000000003F404000000000FF000000CF
:1023500000000000FF0000000002027C800000007E
:102360000040403F0000000000060101020204049A
:10237000000000000000000098230008000000207A
:1023800034000000CC140008CC23000834000020E6
:1023900004040000DC14000800A24A04000000004D
:1023A0000000000001020304060708090000000005
:1023B00001020304010203040607080902040608D7
:0C23C00000000000000000000000000011
:0400000508000131BD
:00000001FF
